:020000040800F2
:1000000000500020C9000008090100080B01000889
:100010000D0100080F010008110100080000000098
:1000200000000000000000000000000013010008B4
:100030001501000800000000170100081901000860
:100040000348044B834202D0034B03B11847704767
:1000500000000020000000200000000005480649C4
:10006000091A891001EBD171491002D0034B03B179
:10007000184770470000002000000020000000002A
:1000800010B5064C237843B9FFF7DAFF044B13B1E0
:100090000448AFF300800123237010BD000000204E
:1000A00000000000A001000808B5044B1BB1044982
:1000B0000448AFF30080BDE80840CFE7000000002F
:1000C00004000020A00100080A4D0B4C03E02B683F
:1000D000236004350434094B9C42F8D1084C02E0FB
:1000E000002323600434074B9C42F9D100F034F81C
:1000F000FEE700BFC801000800000020000000204B
:10010000000000201C00002000BF00BF00BF00BF97
:1001100000BF00BF00BF00BF00BF80B400AF00BF82
:1001200000BFBD4680BC704780B584B000AF78602A
:100130000023FB607B68FA2202FB03F3FA689A4211
:1001400005D2FFF7EAFFFB680133FB60F2E700BF6F
:100150001037BD4680BD000080B500AF0E4B9B69D7
:100160000D4A43F0040393610C4B5B680B4B002278
:100170005A600A4B5B68094A43F480735360074B2B
:10018000064A5B685360054B4FF080621A614FF47A
:100190007A70FFF7C9FFF6E700100240000801403F
:1001A000F8B500BFF8BC08BC9E467047F8B500BF64
:0801B000F8BC08BC9E46704734
:0801B80062FFFF7F010000005F
:0401C000A90000088A
:0401C40081000008AE
:04000005080000C926
:00000001FF
