:020000040800F2
:100000000080012081000008C1000008C300000832
:10001000C5000008C7000008C90000080000000073
:10002000000000000000000000000000CB000008FD
:10003000CD00000800000000CF000008D10000083B
:1000400010B5054C237833B9044B13B10448AFF312
:1000500000800123237010BD00000020000000007C
:100060005401000808B5034B1BB103490348AFF323
:10007000008008BD000000000400002054010008BA
:100080000A4D0B4C03E02B68236004350434094B04
:100090009C42F8D1084C02E0002323600434074B53
:1000A0009C42F9D100F034F8FEE700BF7C01000863
:1000B0000000002000000020000000201C000020A4
:1000C00000BF00BF00BF00BF00BF00BF00BF00BF38
:1000D00000BF80B400AF00BF00BFBD4680BC70470A
:1000E00080B584B000AF78600023FB607B684FF47C
:1000F000FA6202FB03F3FA689A4205D2FFF7E9FFBE
:10010000FB680133FB60F1E700BF1037BD4680BDDF
:1001100080B500AF0D4B9B690C4A43F0040393611B
:100120000B4B00225A600A4B5B68094A43F4807308
:100130005360074B064A5B685360054B4FF480627F
:100140001A614FF4FA70FFF7CBFFF6E70010024098
:1001500000080140F8B500BFF8BC08BC9E467047D7
:0C016000F8B500BFF8BC08BC9E46704714
:08016C0066FFFF7F01000000A7
:04017400650000081A
:04017800410000083A
:04000005080000816E
:00000001FF
